{
  "address": "0xC261BC3f925278320aF202C5EBEc3eBa731C54b6",
  "abi": [
    {
      "inputs": [
        {
          "internalType": "uint256",
          "name": "_timego",
          "type": "uint256"
        },
        {
          "internalType": "address",
          "name": "dataFeedAddr",
          "type": "address"
        }
      ],
      "stateMutability": "nonpayable",
      "type": "constructor"
    },
    {
      "inputs": [],
      "name": "dataFeed",
      "outputs": [
        {
          "internalType": "contract AggregatorV3Interface",
          "name": "",
          "type": "address"
        }
      ],
      "stateMutability": "view",
      "type": "function"
    },
    {
      "inputs": [
        {
          "internalType": "address",
          "name": "",
          "type": "address"
        }
      ],
      "name": "fundCollected",
      "outputs": [
        {
          "internalType": "uint256",
          "name": "",
          "type": "uint256"
        }
      ],
      "stateMutability": "view",
      "type": "function"
    },
    {
      "inputs": [],
      "name": "getChainlinkDataFeedLatestAnswer",
      "outputs": [
        {
          "internalType": "int256",
          "name": "",
          "type": "int256"
        }
      ],
      "stateMutability": "view",
      "type": "function"
    },
    {
      "inputs": [],
      "name": "getfundme",
      "outputs": [],
      "stateMutability": "nonpayable",
      "type": "function"
    },
    {
      "inputs": [],
      "name": "oner",
      "outputs": [
        {
          "internalType": "address",
          "name": "",
          "type": "address"
        }
      ],
      "stateMutability": "view",
      "type": "function"
    },
    {
      "inputs": [],
      "name": "pdsu",
      "outputs": [
        {
          "internalType": "bool",
          "name": "",
          "type": "bool"
        }
      ],
      "stateMutability": "view",
      "type": "function"
    },
    {
      "inputs": [],
      "name": "receiveEther",
      "outputs": [],
      "stateMutability": "payable",
      "type": "function"
    },
    {
      "inputs": [
        {
          "internalType": "address",
          "name": "_erc20addr",
          "type": "address"
        }
      ],
      "name": "reerc20",
      "outputs": [],
      "stateMutability": "nonpayable",
      "type": "function"
    },
    {
      "inputs": [],
      "name": "refundme",
      "outputs": [],
      "stateMutability": "nonpayable",
      "type": "function"
    },
    {
      "inputs": [
        {
          "internalType": "address",
          "name": "newoner",
          "type": "address"
        }
      ],
      "name": "setoner",
      "outputs": [],
      "stateMutability": "nonpayable",
      "type": "function"
    },
    {
      "inputs": [
        {
          "internalType": "address",
          "name": "_funner",
          "type": "address"
        },
        {
          "internalType": "uint256",
          "name": "upmub",
          "type": "uint256"
        }
      ],
      "name": "settoken",
      "outputs": [],
      "stateMutability": "nonpayable",
      "type": "function"
    }
  ],
  "transactionHash": "0xa5d09be47759fe0acaef4621f04578578e4c8ee8faed2d1845ac14fc4fb4d916",
  "args": [
    180,
    "0x694AA1769357215DE4FAC081bf1f309aDC325306"
  ],
  "numDeployments": 1,
  "solcInputHash": "43e067cce79f79d2d8c68ba2666e9873",
  "bytecode": "0x60806040526000600560146101000a81548160ff02191690831515021790555034801561002b57600080fd5b506040516115a93803806115a9833981810160405281019061004d919061017c565b806000806101000a81548173ffffffffffffffffffffffffffffffffffffffff021916908373ffffffffffffffffffffffffffffffffffffffff16021790555033600260006101000a81548173ffffffffffffffffffffffffffffffffffffffff021916908373ffffffffffffffffffffffffffffffffffffffff160217905550426003819055508160048190555050506101bc565b600080fd5b6000819050919050565b6100fb816100e8565b811461010657600080fd5b50565b600081519050610118816100f2565b92915050565b600073ffffffffffffffffffffffffffffffffffffffff82169050919050565b60006101498261011e565b9050919050565b6101598161013e565b811461016457600080fd5b50565b60008151905061017681610150565b92915050565b60008060408385031215610193576101926100e3565b5b60006101a185828601610109565b92505060206101b285828601610167565b9150509250929050565b6113de806101cb6000396000f3fe60806040526004361061009c5760003560e01c80633fb9e104116100645780633fb9e10414610174578063845b7a451461019d57806386551cda146101b45780639e42ff90146101dd578063a3912ec814610208578063bea4dfb5146102125761009c565b8063024b4ee7146100a157806318851978146100b85780632ca4020d146100e1578063300bdf671461011e57806335552c3614610149575b600080fd5b3480156100ad57600080fd5b506100b661023d565b005b3480156100c457600080fd5b506100df60048036038101906100da9190610c3c565b61043f565b005b3480156100ed57600080fd5b5061010860048036038101906101039190610c3c565b6105a3565b6040516101159190610c82565b60405180910390f35b34801561012a57600080fd5b506101336105bb565b6040516101409190610cac565b60405180910390f35b34801561015557600080fd5b5061015e6105e1565b60405161016b9190610ce2565b60405180910390f35b34801561018057600080fd5b5061019b60048036038101906101969190610d29565b6105f4565b005b3480156101a957600080fd5b506101b26106cc565b005b3480156101c057600080fd5b506101db60048036038101906101d69190610c3c565b610928565b005b3480156101e957600080fd5b506101f26109fc565b6040516101ff9190610dc8565b60405180910390f35b610210610a20565b005b34801561021e57600080fd5b50610227610b0a565b6040516102349190610dfc565b60405180910390f35b60045460035461024d9190610e46565b42101561028f576040517f08c379a000000000000000000000000000000000000000000000000000000000815260040161028690610ed7565b60405180910390fd5b600260009054906101000a900473ffffffffffffffffffffffffffffffffffffffff1673ffffffffffffffffffffffffffffffffffffffff163373ffffffffffffffffffffffffffffffffffffffff161461031f576040517f08c379a000000000000000000000000000000000000000000000000000000000815260040161031690610f43565b60405180910390fd5b6801158e460913d0000061033247610ba9565b1015610373576040517f08c379a000000000000000000000000000000000000000000000000000000000815260040161036a90610faf565b60405180910390fd5b60003373ffffffffffffffffffffffffffffffffffffffff164760405161039990611000565b60006040518083038185875af1925050503d80600081146103d6576040519150601f19603f3d011682016040523d82523d6000602084013e6103db565b606091505b50508091505080610421576040517f08c379a000000000000000000000000000000000000000000000000000000000815260040161041890611038565b60405180910390fd5b6001600560146101000a81548160ff02191690831515021790555050565b600260009054906101000a900473ffffffffffffffffffffffffffffffffffffffff1673ffffffffffffffffffffffffffffffffffffffff163373ffffffffffffffffffffffffffffffffffffffff16146104cf576040517f08c379a00000000000000000000000000000000000000000000000000000000081526004016104c690610f43565b60405180910390fd5b600260009054906101000a900473ffffffffffffffffffffffffffffffffffffffff1673ffffffffffffffffffffffffffffffffffffffff163373ffffffffffffffffffffffffffffffffffffffff161461055f576040517f08c379a000000000000000000000000000000000000000000000000000000000815260040161055690610f43565b60405180910390fd5b80600260006101000a81548173ffffffffffffffffffffffffffffffffffffffff021916908373ffffffffffffffffffffffffffffffffffffffff16021790555050565b60016020528060005260406000206000915090505481565b600260009054906101000a900473ffffffffffffffffffffffffffffffffffffffff1681565b600560149054906101000a900460ff1681565b600560009054906101000a900473ffffffffffffffffffffffffffffffffffffffff1673ffffffffffffffffffffffffffffffffffffffff163373ffffffffffffffffffffffffffffffffffffffff1614610684576040517f08c379a000000000000000000000000000000000000000000000000000000000815260040161067b90610f43565b60405180910390fd5b80600160008473ffffffffffffffffffffffffffffffffffffffff1673ffffffffffffffffffffffffffffffffffffffff168152602001908152602001600020819055505050565b6004546003546106dc9190610e46565b42101561071e576040517f08c379a000000000000000000000000000000000000000000000000000000000815260040161071590610ed7565b60405180910390fd5b6801158e460913d0000061073147610ba9565b10610771576040517f08c379a0000000000000000000000000000000000000000000000000000000008152600401610768906110a4565b60405180910390fd5b6000600160003373ffffffffffffffffffffffffffffffffffffffff1673ffffffffffffffffffffffffffffffffffffffff16815260200190815260200160002054036107f3576040517f08c379a00000000000000000000000000000000000000000000000000000000081526004016107ea90611110565b60405180910390fd5b60003373ffffffffffffffffffffffffffffffffffffffff16600160003373ffffffffffffffffffffffffffffffffffffffff1673ffffffffffffffffffffffffffffffffffffffff1681526020019081526020016000205460405161085890611000565b60006040518083038185875af1925050503d8060008114610895576040519150601f19603f3d011682016040523d82523d6000602084013e61089a565b606091505b505080915050806108e0576040517f08c379a00000000000000000000000000000000000000000000000000000000081526004016108d79061117c565b60405180910390fd5b6000600160003373ffffffffffffffffffffffffffffffffffffffff1673ffffffffffffffffffffffffffffffffffffffff1681526020019081526020016000208190555050565b600260009054906101000a900473ffffffffffffffffffffffffffffffffffffffff1673ffffffffffffffffffffffffffffffffffffffff163373ffffffffffffffffffffffffffffffffffffffff16146109b8576040517f08c379a00000000000000000000000000000000000000000000000000000000081526004016109af90610f43565b60405180910390fd5b80600560006101000a81548173ffffffffffffffffffffffffffffffffffffffff021916908373ffffffffffffffffffffffffffffffffffffffff16021790555050565b60008054906101000a900473ffffffffffffffffffffffffffffffffffffffff1681565b670de0b6b3a7640000610a3234610ba9565b1015610a73576040517f08c379a0000000000000000000000000000000000000000000000000000000008152600401610a6a906111e8565b60405180910390fd5b600454600354610a839190610e46565b4210610ac4576040517f08c379a0000000000000000000000000000000000000000000000000000000008152600401610abb90610ed7565b60405180910390fd5b34600160003373ffffffffffffffffffffffffffffffffffffffff1673ffffffffffffffffffffffffffffffffffffffff16815260200190815260200160002081905550565b60008060008054906101000a900473ffffffffffffffffffffffffffffffffffffffff1673ffffffffffffffffffffffffffffffffffffffff1663feaf968c6040518163ffffffff1660e01b815260040160a060405180830381865afa158015610b78573d6000803e3d6000fd5b505050506040513d601f19601f82011682018060405250810190610b9c919061128b565b5050509150508091505090565b600080610bb4610b0a565b90506305f5e1008184610bc79190611306565b610bd19190611377565b915050919050565b600080fd5b600073ffffffffffffffffffffffffffffffffffffffff82169050919050565b6000610c0982610bde565b9050919050565b610c1981610bfe565b8114610c2457600080fd5b50565b600081359050610c3681610c10565b92915050565b600060208284031215610c5257610c51610bd9565b5b6000610c6084828501610c27565b91505092915050565b6000819050919050565b610c7c81610c69565b82525050565b6000602082019050610c976000830184610c73565b92915050565b610ca681610bfe565b82525050565b6000602082019050610cc16000830184610c9d565b92915050565b60008115159050919050565b610cdc81610cc7565b82525050565b6000602082019050610cf76000830184610cd3565b92915050565b610d0681610c69565b8114610d1157600080fd5b50565b600081359050610d2381610cfd565b92915050565b60008060408385031215610d4057610d3f610bd9565b5b6000610d4e85828601610c27565b9250506020610d5f85828601610d14565b9150509250929050565b6000819050919050565b6000610d8e610d89610d8484610bde565b610d69565b610bde565b9050919050565b6000610da082610d73565b9050919050565b6000610db282610d95565b9050919050565b610dc281610da7565b82525050565b6000602082019050610ddd6000830184610db9565b92915050565b6000819050919050565b610df681610de3565b82525050565b6000602082019050610e116000830184610ded565b92915050565b7f4e487b7100000000000000000000000000000000000000000000000000000000600052601160045260246000fd5b6000610e5182610c69565b9150610e5c83610c69565b9250828201905080821115610e7457610e73610e17565b5b92915050565b600082825260208201905092915050565b7f6e6f2062756368656e6700000000000000000000000000000000000000000000600082015250565b6000610ec1600a83610e7a565b9150610ecc82610e8b565b602082019050919050565b60006020820190508181036000830152610ef081610eb4565b9050919050565b7f4f6e6c79206f776e657200000000000000000000000000000000000000000000600082015250565b6000610f2d600a83610e7a565b9150610f3882610ef7565b602082019050919050565b60006020820190508181036000830152610f5c81610f20565b9050919050565b7f3100000000000000000000000000000000000000000000000000000000000000600082015250565b6000610f99600183610e7a565b9150610fa482610f63565b602082019050919050565b60006020820190508181036000830152610fc881610f8c565b9050919050565b600081905092915050565b50565b6000610fea600083610fcf565b9150610ff582610fda565b600082019050919050565b600061100b82610fdd565b9150819050919050565b6000611022600083610e7a565b915061102d82610fda565b600082019050919050565b6000602082019050818103600083015261105181611015565b9050919050565b7f6d6569796f750000000000000000000000000000000000000000000000000000600082015250565b600061108e600683610e7a565b915061109982611058565b602082019050919050565b600060208201905081810360008301526110bd81611081565b9050919050565b7f596f7520686176656e27742066756e64206d6500000000000000000000000000600082015250565b60006110fa601383610e7a565b9150611105826110c4565b602082019050919050565b60006020820190508181036000830152611129816110ed565b9050919050565b7f596f7527766520616c726561647920726566756e646564206d65000000000000600082015250565b6000611166601a83610e7a565b915061117182611130565b602082019050919050565b6000602082019050818103600083015261119581611159565b9050919050565b7f596f75206e65656420746f2073656e642061746c656173742031204554480000600082015250565b60006111d2601e83610e7a565b91506111dd8261119c565b602082019050919050565b60006020820190508181036000830152611201816111c5565b9050919050565b600069ffffffffffffffffffff82169050919050565b61122781611208565b811461123257600080fd5b50565b6000815190506112448161121e565b92915050565b61125381610de3565b811461125e57600080fd5b50565b6000815190506112708161124a565b92915050565b60008151905061128581610cfd565b92915050565b600080600080600060a086880312156112a7576112a6610bd9565b5b60006112b588828901611235565b95505060206112c688828901611261565b94505060406112d788828901611276565b93505060606112e888828901611276565b92505060806112f988828901611235565b9150509295509295909350565b600061131182610c69565b915061131c83610c69565b925082820261132a81610c69565b9150828204841483151761134157611340610e17565b5b5092915050565b7f4e487b7100000000000000000000000000000000000000000000000000000000600052601260045260246000fd5b600061138282610c69565b915061138d83610c69565b92508261139d5761139c611348565b5b82820490509291505056fea2646970667358221220673c0bbdcafbe6fb58ea0421c79c595aee255a0dee678437b09ed9d7f948c37b64736f6c634300081c0033",
  "devdoc": {
    "kind": "dev",
    "methods": {
      "getChainlinkDataFeedLatestAnswer()": {
        "returns": {
          "_0": "int 最新的数据答案"
        }
      }
    },
    "version": 1
  },
  "userdoc": {
    "kind": "user",
    "methods": {
      "getChainlinkDataFeedLatestAnswer()": {
        "notice": "获取Chainlink数据源的最新答案  此函数用于从Chainlink数据源中获取最新的数据答案它忽略了其他返回的数据， 仅关注并返回'answer'字段这是因为其他信息（如roundId，startedAt，updatedAt， answeredInRound）在此上下文中未被使用 "
      },
      "receiveEther()": {
        "notice": "接收以太币函数  该函数用于接收发送到合约的以太币它有两个主要要求： 1. 发送的以太币价值必须达到最小价值要求 2. 当前时间必须在允许的筹款时间内  满足条件后，发送者的地址和对应的以太币价值会被记录  注意：该函数没有返回值"
      }
    },
    "version": 1
  },
  "storageLayout": {
    "storage": [
      {
        "astId": 764,
        "contract": "contracts/fundme.sol:fundme",
        "label": "dataFeed",
        "offset": 0,
        "slot": "0",
        "type": "t_contract(AggregatorV3Interface)45"
      },
      {
        "astId": 796,
        "contract": "contracts/fundme.sol:fundme",
        "label": "fundCollected",
        "offset": 0,
        "slot": "1",
        "type": "t_mapping(t_address,t_uint256)"
      },
      {
        "astId": 812,
        "contract": "contracts/fundme.sol:fundme",
        "label": "oner",
        "offset": 0,
        "slot": "2",
        "type": "t_address"
      },
      {
        "astId": 814,
        "contract": "contracts/fundme.sol:fundme",
        "label": "timestart",
        "offset": 0,
        "slot": "3",
        "type": "t_uint256"
      },
      {
        "astId": 816,
        "contract": "contracts/fundme.sol:fundme",
        "label": "timego",
        "offset": 0,
        "slot": "4",
        "type": "t_uint256"
      },
      {
        "astId": 818,
        "contract": "contracts/fundme.sol:fundme",
        "label": "erc20addr",
        "offset": 0,
        "slot": "5",
        "type": "t_address"
      },
      {
        "astId": 821,
        "contract": "contracts/fundme.sol:fundme",
        "label": "pdsu",
        "offset": 20,
        "slot": "5",
        "type": "t_bool"
      }
    ],
    "types": {
      "t_address": {
        "encoding": "inplace",
        "label": "address",
        "numberOfBytes": "20"
      },
      "t_bool": {
        "encoding": "inplace",
        "label": "bool",
        "numberOfBytes": "1"
      },
      "t_contract(AggregatorV3Interface)45": {
        "encoding": "inplace",
        "label": "contract AggregatorV3Interface",
        "numberOfBytes": "20"
      },
      "t_mapping(t_address,t_uint256)": {
        "encoding": "mapping",
        "key": "t_address",
        "label": "mapping(address => uint256)",
        "numberOfBytes": "32",
        "value": "t_uint256"
      },
      "t_uint256": {
        "encoding": "inplace",
        "label": "uint256",
        "numberOfBytes": "32"
      }
    }
  }
}